:100000000C9424040C9436040C9436040C94AF0F16
:100010000C9485310C9436040C9436040C943604FC
:100020000C9436040C9436040C9436040C944E282C
:100030000C9436040C9436040C9436040C94360458
:100040000C94672A0C9436040C94A5240C94672411
:100050000C9436040C9436040C9436040C94360438
:100060000C9436040C9436044307270F270F4D07D2
:100070005A0767077407270F7807270F8607270F88
:1000800090079A07CB07270F270F270FA407B10761
:10009000BE07EB0DFC0D1B0EFC0D1F0E320E250EC8
:1000A0002B0E470E4D0E5C0E730E970EA10EAD0E6D
:1000B000B70EA61FA91FAE1FB11FB41FB71FBA1FCF
:1000C000BD1FC01FC31FC61FD21FD21FD21FD21FEA
:1000D000D21FD21FD21FD21FCC1FC91FCF1F192062
:1000E0001C201F202220252028202B202E20042702
:1000F0000A270D27102715271D2727279327932722
:1001000093272F2732273B2744279327932793278B
:100110009327932793274C27562762276A276D2713
:1001200076277F278527084AD73B3BCE016E84BCC4
:10013000BFFDC12F3D6C74319ABD56833DDA3D0041
:10014000C77F11BED9E4BB4C3E916BAAAABE00008A
:1001500000803F05A84CCDB2D44EB93836A9020C68
:1001600050B9918688083CA6AAAA2ABE0000008041
:100170003F003E0D0A002C4C696D3A002C52583A53
:10018000002C4275663A002C002C57506F733A00D1
:100190002C002C4D506F733A003C446F6F72003C42
:1001A000436865636B003C416C61726D003C486F55
:1001B0006D65003C486F6C64003C52756E003C49B4
:1001C000646C65005D0D0A005B302E396A2E32309A
:1001D0003135313231383A000D0A003D00244E00ED
:1001E0005D0D0A00204600205400204D3800204DAF
:1001F0003900204D3500204D3400204D3300204D76
:100200003200204D3100204D30002047393400208D
:100210004739330020473931002047393000204723
:100220003230002047323100204731390020473139
:10023000380020473137002047004733382E004729
:100240003830004733004732004731004730005B09
:10025000005D0D0A005B544C4F3A005D0D0A002C06
:10026000005B4739323A005D0D0A002C003A00333A
:1002700030003238005B47005D0D0A003A002C0068
:100280005B5052423A00290D0A00206D61782074BB
:10029000726176656C2C206D6D0020616363656C06
:1002A0002C206D6D2F7365635E3200206D617820A8
:1002B000726174652C206D6D2F6D696E002C20733A
:1002C0007465702F6D6D007A007900780020280029
:1002D0003D0024002028686F6D696E672070756C82
:1002E0006C2D6F66662C206D6D290D0A0020286824
:1002F0006F6D696E67206465626F756E63652C2033
:100300006D736563290D0A2432373D002028686F1C
:100310006D696E67207365656B2C206D6D2F6D693F
:100320006E290D0A2432363D002028686F6D696EF3
:100330006720666565642C206D6D2F6D696E290DD3
:100340000A2432353D00290D0A2432343D0020288C
:10035000686F6D696E672064697220696E76657278
:1003600074206D61736B3A002028686F6D696E6749
:10037000206379636C652C20626F6F6C290D0A24F1
:1003800032333D00202868617264206C696D6974A5
:10039000732C20626F6F6C290D0A2432323D0020CD
:1003A00028736F6674206C696D6974732C20626F9A
:1003B0006F6C290D0A2432313D0020287265706F60
:1003C000727420696E636865732C20626F6F6C298C
:1003D0000D0A2432303D00202861726320746F6C56
:1003E0006572616E63652C206D6D290D0A243133B1
:1003F0003D0020286A756E6374696F6E20646576AF
:10040000696174696F6E2C206D6D290D0A2431327B
:100410003D00290D0A2431313D0020287374617498
:100420007573207265706F7274206D61736B3A0022
:10043000202870726F62652070696E20696E766523
:1004400072742C20626F6F6C290D0A2431303D00CC
:1004500020286C696D69742070696E7320696E76EE
:100460006572742C20626F6F6C290D0A24363D0072
:1004700020287374657020656E61626C6520696EFA
:10048000766572742C20626F6F6C290D0A24353DDD
:1004900000290D0A24343D00202864697220706F01
:1004A000727420696E76657274206D61736B3A00A8
:1004B000290D0A24333D0020287374657020706F65
:1004C000727420696E76657274206D61736B3A0088
:1004D0002028737465702069646C652064656C61A4
:1004E000792C206D736563290D0A24323D00202884
:1004F000737465702070756C73652C2075736563FB
:10050000290D0A24313D0024303D00242420287682
:10051000696577204772626C2073657474696E67D1
:1005200073290D0A242320287669657720232070FB
:100530006172616D6574657273290D0A2447202804
:100540007669657720706172736572207374617467
:1005500065290D0A24492028766965772062756926
:100560006C6420696E666F290D0A244E2028766916
:100570006577207374617274757020626C6F636B41
:1005800073290D0A24783D76616C756520287361A6
:100590007665204772626C2073657474696E672992
:1005A0000D0A244E783D6C696E652028736176656E
:1005B000207374617274757020626C6F636B290DA7
:1005C0000A24432028636865636B2067636F646552
:1005D000206D6F6465290D0A245820286B696C6CA6
:1005E00020616C61726D206C6F636B290D0A244869
:1005F000202872756E20686F6D696E67206379635D
:100600006C65290D0A7E20286379636C65207374FC
:10061000617274290D0A2120286665656420686F5F
:100620006C64290D0A3F202863757272656E742010
:10063000737461747573290D0A6374726C2D78205C
:10064000287265736574204772626C290D0A000D6B
:100650000A4772626C20302E396A205B27242720DB
:10066000666F722068656C705D0D0A005D0D0A0092
:10067000526573746F72696E672064656661756C2C
:1006800074730050676D20456E6400436865636B4A
:1006900020446F6F720044697361626C6564004549
:1006A0006E61626C65640043617574696F6E3A20B7
:1006B000556E6C6F636B656400272448277C272484
:1006C000582720746F20756E6C6F636B00526573D2
:1006D000657420746F20636F6E74696E7565005B5E
:1006E000000D0A00486F6D696E67206661696C00D5
:1006F00050726F6265206661696C0041626F72744E
:1007000020647572696E67206379636C6500536F4E
:100710006674206C696D69740048617264206C694C
:100720006D697400414C41524D3A20000D0A004958
:100730006E76616C69642067636F64652049443A32
:1007400000556E646566696E656420666565642043
:100750007261746500556E737570706F7274656444
:1007600020636F6D6D616E64004D6F64616C206716
:10077000726F75702076696F6C6174696F6E004C72
:10078000696E65206F766572666C6F7700486F6D75
:10079000696E67206E6F7420656E61626C656400BF
:1007A000416C61726D206C6F636B004E6F742069D9
:1007B000646C6500454550524F4D20726561642060
:1007C0006661696C2E205573696E67206465666189
:1007D000756C74730056616C7565203C2033207510
:1007E0007365630053657474696E6720646973612F
:1007F000626C65640056616C7565203C2030004970
:100800006E76616C69642073746174656D656E7475
:1008100000426164206E756D62657220666F726D54
:10082000617400457870656374656420636F6D6DF5
:10083000616E64206C6574746572006572726F72AB
:100840003A20006F6B0D0A0011241FBECFEFD8E0D5
:10085000DEBFCDBF26E0A0E0B1E001C01D92AD3CFF
:10086000B207E1F70E9419120C94DE370C940000D5
:10087000439808953B9A0C943804823011F4439ABB
:1008800008950C943804CF93DF931F92CDB7DEB751
:100890009091A305923049F089830E947F1F89813E
:1008A0000F90DF91CF910C943D040F90DF91CF9189
:1008B0000895F999FECF92BD81BD81E08FBB80B5CF
:1008C0000895F894F999FECF92BD81BD81E08FBB68
:1008D00040B54627842F992787FD9095262F30E035
:1008E00082239323892B39F06F3F19F060BD84E098
:1008F00006C084E104C0442321F060BD84E28FBBC4
:10090000F99A789408959F92AF92BF92CF92DF9216
:10091000EF92FF920F931F93CF93DF938C017A0195
:100920006B01C40ED51EEB01912C5C01A61AB70A0F
:10093000CE018A0D9B1DCC15DD0591F0911009C0EB
:10094000692D772767FD7095272F221F2227221FE9
:1009500001C021E06991922E960E0E946104E8CFB9
:10096000692DC8018E0D9F1DDF91CF911F910F91B1
:10097000FF90EF90DF90CF90BF90AF909F900C943E
:1009800061049F92AF92BF92CF92DF92EF92FF925B
:100990000F931F93CF93DF938B017A016C01C40EE9
:1009A000D51EEC01912C5B01A81AB90AC5018C0F68
:1009B0009D1FCC15DD0591F00E945904911009C0CE
:1009C000292D332727FD3095232F221F2227221F71
:1009D00001C021E0922E980E8993E8CFC8018E0DB8
:1009E0009F1D0E94590421E030E0981611F020E08C
:1009F00030E0C901DF91CF911F910F91FF90EF90EF
:100A0000DF90CF90BF90AF909F9008958FE3EAE280
:100A1000F5E0DF011D928A95E9F76DE475E080E06D
:100A20000E946426811103C087E00C94901F0895F2
:100A300065EA75E081E495E00C9471332F923F9262
:100A40004F925F926F927F928F929F92AF92BF92DE
:100A5000CF92DF92EF92FF920F931F93CF93DF938A
:100A6000CDB7DEB7AB970FB6F894DEBF0FBECDBFE4
:100A700098A38F8F89E3E9E6F5E0DF011D928A955F
:100A8000E9F78AE0EAE2F5E0AAE6B5E001900D9226
:100A90008A95E1F71D8E212C312CA12CB12C19A2A5
:100AA000512C1E8E66246394712C08E0402E9924EC
:100AB000939485E0882E8D8DEF8DF8A1E80FF11DC0
:100AC0000081002309F48AC29FEB900F9A3110F045
:100AD0000C94190F8F5F8D8FAE01475E5F4FBE0183
:100AE000635E7F4F8F8D98A10E94DA16882311F4E0
:100AF0000C941B0FC98CDA8CEB8CFC8CC701B601F3
:100B00000E9471370E94D934162F70E080E090E087
:100B10000E9407359B01AC01C701B6010E948B33CF
:100B200020E030E048EC52E40E94A3360E940637F1
:100B30000E94D934073421F00D3409F450C192C118
:100B4000183209F432C1E8F4143160F4113108F0BC
:100B5000D7C0143009F45AC008F48EC01A30D9F145
:100B60000C94270F1C31B9F128F4163108F4F7C0A2
:100B70000C94270F1E3179F1163209F47DC00C94C4
:100B8000270F1D3309F40BC1A8F4153309F461C014
:100B900040F41B3209F4ECC0113309F4E9C00C94A1
:100BA000270F1C3310F00C94270F16531093700569
:100BB00089E000C11C3540F41A3508F0B0C010358A
:100BC00009F49BC00C94270F1C3529F01F3508F43D
:100BD000BDC00C94270F6115710531F4BE8DB111A4
:100BE0000C941D0FE1E0EE8F1C3199F038F41430B5
:100BF00069F01A3009F0DBC082E02CC0153349F1EE
:100C00001C3559F11E3109F0D2C013C0909269050C
:100C1000CEC06115710549F06A30710511F00C9470
:100C2000270F24E02093690509C0F3E0F0936905DC
:100C300005C06115710521F48092690580E0BFC08F
:100C40006A30710511F00C94270F36E03093690576
:100C5000F5CF87E080936905AAC06115710549F059
:100C60006A30710511F00C94270F99E09093690593
:100C7000E5CF40926905E2CFAE8DA1110C941D0F16
:100C8000B2E0BE8F123089F028F4112359F01130F0
:100C900081F08FC0163281F0103579F1133009F0F0
:100CA00088C007C010926A0584C0EE8DE0936A0583
:100CB00080C010936A057DC06E317105B1F048F4B3
:100CC0006431710511F00C94270FF4E0F0936A057C
:100CD00012C06832710561F06233710511F00C9435
:100CE000270F37E030936A0506C080926A0503C07B
:100CF00026E020936A0581E062C040926A0559C0EF
:100D0000123129F0133139F010926E0502C0909221
:100D10006E0582E04FC082E080936E054BC0611586
:100D2000710549F41A3519F410926D0502C09092BC
:100D30006D0583E044C06A30710511F00C94270FF3
:100D40001A3511F40C94270F84E039C01D3519F4BD
:100D500090926B0502C010926B0585E02BC0143198
:100D600019F490926C0502C010926C0586E022C0C6
:100D70008E8D81110C941D0F113331F410926F057B
:100D800088E093E09E8F1BC06A30710511F00C94CF
:100D9000270F90926F0588E0A3E0AE8F10C0672BFD
:100DA00011F00C94270F8AE00AC087E003C080E0AE
:100DB00001C081E0672B19F087E10C943A0FF30131
:100DC00002C0EE0FFF1F8A95E2F7CF019F012A2193
:100DD0003B21232B09F443C085E10C943A0F672B88
:100DE00059F7163018F4133058F017C0183010F4B3
:100DF0000C94270F1A3000F11E3159F00C94270F74
:100E0000123039F01E3129F0111120C09092710575
:100E10001DC082E08093710519C0143029F015308F
:100E200039F09092730506C082E08093730502C08A
:100E3000109273058CE00BC0193021F082E0809392
:100E4000720502C0109272058DE001C08BE0930123
:100E500002C0220F331F8A95E2F7C901B8CFA82A32
:100E6000B92A29CE802F992787FD9095A92FB92FD0
:100E7000FC01E654F109E531F10508F0E8C7EC5C46
:100E8000FF4F0C94BE37C0927405D0927505E09266
:100E90007605F092770580E07FC0C0927805D09209
:100EA0007905E0927A05F0927B0539A1316039A38A
:100EB00081E072C0C0927C05D0927D05E0927E05F3
:100EC000F0927F0589A1826089A382E065C0C0920B
:100ED0008005D0928105E0928205F092830599A168
:100EE000946099A383E058C01093840584E054C0B3
:100EF000C701B6010E94D4346093850570938605BE
:100F0000809387059093880585E046C0C092890547
:100F1000D0928A05E0928B05F0928C0586E03CC069
:100F2000C0928D05D0928E05E0928F05F0929005CB
:100F300087E032C0C0929105D0929205E09293056D
:100F4000F092940588E028C0C0929605D09297054B
:100F5000E0929805F0929905A52DA1605A2E8AE09D
:100F60001BC0C0929A05D0929B05E0929C05F0921E
:100F70009D05B52DB2605B2E8BE00EC0C0929E0524
:100F8000D0929F05E092A005F092A105E52DE460C6
:100F90005E2E8CE001C089E08301082E02C0000FA4
:100FA000111F0A94E2F7980122213321232B09F023
:100FB00046C721E633E002C0359527958A95E2F7CA
:100FC00020FF09C020E030E0A901C701B6010E945E
:100FD000653487FD36C7202A312A6DCD552029F08A
:100FE0003E8D311102C082E08E8F25FE0EC08091B1
:100FF000850590918605A0918705B0918805803878
:101000009649A849B1050CF01EC780916B05813047
:1010100031F4FE8DF230A1F520FE1FC731C0809162
:101020002B0581112DC020FE1BC080916C058130E5
:1010300039F523E333E34BEC51E46091740570918F
:10104000750580917605909177050E94A33660938F
:10105000740570937505809376059093770510C09D
:101060008091380590913905A0913A05B0913B05E2
:101070008093740590937505A0937605B0937705DA
:1010800030FC10C08091340590913505A091360553
:10109000B09137058093910590939205A0939305A5
:1010A000B093940580916905813031F426FC02C02B
:1010B0008CE1E0C6E89426F880916E05882341F023
:1010C000813061F019A682E088A791E09FA30BC050
:1010D00022E029A731E038A71FA205C0A1E0A9A7F7
:1010E00018A6B2E0BFA380916C05813021F0EE8D8F
:1010F000E33091F52AC0B6E9EB2EB5E0FB2E00E017
:1011000010E0C52CD12CC601002E02C09595879504
:101110000A94E2F780FF10C023E333E34BEC51E481
:10112000D7016D917D918D919C910E94A336F7011D
:1011300060837183828393830F5F1F4FF4E0EF0E10
:10114000F11C03301105F9F6D2CF80916F05813083
:1011500019F424E0521279C68CE0EDE4F5E0DE01EA
:101160001D9601900D928A95E1F7B1FC09C030916E
:1011700069053F8F3230B9F0383009F4B0C015C17D
:1011800080917005873010F08DE174C69091300524
:10119000981769F3BE01635F7F4F0E94642688231E
:1011A00009F465C6E4CF511002C08AE163C6C101EB
:1011B00080759927892B09F47BCF609189057091FF
:1011C0008A0580918B0590918C050E9471370E9451
:1011D000D9346730C8F680918405843129F0823093
:1011E00009F035C627FC33C68FEA2822662319F09A
:1011F00061506F8F03C0909170059F8FBE016F5F2C
:101200007F4F8F8D0E946426882309F430C640905A
:1012100084056090650570906605809067059090E4
:101220006805DE0111967D01F6E9CF2EF5E0DF2E8F
:10123000A1E4AA2EA5E0BA2E00E010E0E52DF0E032
:10124000FEA3EDA38DA19EA1002E02C095958795CA
:101250000A94E2F780FF33C0F4E14F1226C0D501B3
:1012600058962D913D914D915C915B976D917D913B
:101270008D919C910E948B33F601208131814281B6
:1012800053810E948B33D7016D937D938D939C93F3
:1012900013970230A1F4A40193010E948B33F7014C
:1012A00060837183828393830AC0F6018081918178
:1012B000A281B381F70180839183A283B3830F5FFF
:1012C0001F4FF4E0EF0EF11C24E0C20ED11C34E0FD
:1012D000A30EB11C0330110509F0B4CF0FC1552086
:1012E00009F463CF6090650570906605809067058E
:1012F0009090680506E915E0E1E4CE2EE5E0DE2EEB
:101300005E018DE0A80EB11CE12CF12CA52DB0E002
:10131000B8A3AF8F8F8D98A10E2C02C0959587959D
:101320000A94E2F780FF26C0F501208131814281D5
:101330005381D6016D917D918D919C910E948B334B
:10134000F80120813181428153810E948B33D80181
:101350006D937D938D939C931397B2E0EB1214C021
:10136000A40193010E948B33F8016083718382830F
:1013700093830AC0F601808D918DA28DB38DF80103
:1013800080839183A283B383FFEFEF1AFF0A0C5F80
:101390001F4F24E0C20ED11C34E0A30EB11C83E029
:1013A000E816F10409F0B6CFA8C09E8D933059F429
:1013B000AF8DA53009F48FC0A73009F499C0A330D0
:1013C00009F09BC080C0552099F340906D05809036
:1013D000650590906605A0906705B090680571E47A
:1013E000C72E75E0D72E06E915E03E01BDE06B0E75
:1013F000711CE12CF12CE52DF0E0FEA3EDA38DA1F5
:101400009EA10E2C02C0959587950A94E2F780FD67
:101410000BC0F60180819181A281B381F8018083A4
:101420009183A283B3833EC0FF8DF730D9F1411081
:1014300028C0D60158962D913D914D915C915B97B6
:10144000F30160817181828193810E948C33D80184
:101450002D913D914D915C910E948C33F8016083F8
:10146000718382839383F2E0EF121CC0A501940183
:101470000E948C33D8016D937D938D939C93139729
:1014800011C0F6012081318142815381D8016D91D3
:101490007D918D919C910E948C33F80160837183C2
:1014A00082839383FFEFEF1AFF0A24E0C20ED11C60
:1014B0000C5F1F4F34E0630E711C83E0E816F104EB
:1014C00009F09DCF75CF511001C01E8EBE016F5F18
:1014D0007F4F86E007C0511001C01E8EBE016F5FB6
:1014E0007F4F87E00E946426882309F4C0C405C0AA
:1014F00080916A05823008F0ACC41F8E10916A0595
:10150000183041F4552009F4B3C19E8D913009F093
:10151000A2C48BC2AE8DA23009F0AAC11123D9F0AA
:1015200020E030E0A901609174057091750580910B
:101530007605909177050E946534882309F48DC45F
:10154000143028F4123058F4113029F06EC21830DB
:1015500008F44DC16AC2511068C21E8E8CC155205C
:1015600009F423CEFFA1EF2FF0E0FEA3EDA338A5F1
:10157000232F30E03BA72AA781E090E03C0108A49C
:1015800002C0660C771C0A94E2F70FA002C0880F15
:10159000991F0A94E2F7682A792A852D90E086211E
:1015A0009721892B09F45BC4CF01880F991F880FFD
:1015B000991FFC01E759FA4FDC01A65DBA4F579617
:1015C0002D913D914D915C915A9765A576A587A582
:1015D00090A90E948B336B017C018AA59BA5880F83
:1015E000991F880F991FFC01E759FA4FDC01A65D8E
:1015F000BA4F57962D913D914D915C915A9765A5A3
:1016000076A587A590A90E948B334B015C0127FE2C
:1016100040C0E89427F820919605309197054091B5
:10162000980550919905609141057091420580910E
:101630004305909144050E946534811120C1209199
:101640009A0530919B0540919C0550919D056091B4
:1016500045057091460580914705909148050E9487
:10166000653481110CC120919E0530919F054091F8
:10167000A0055091A1056091490570914A0580919E
:101680004B0590914C050E9465348111F8C081E2B0
:10169000F1C3F9A14F2E512C64207520672809F45D
:1016A000E0C321EF222280916C05813009F45AC0F9
:1016B0000AA51BA5000F111F000F111F03591A4F78
:1016C000D8011B962D913D914D915C911E97C501BE
:1016D000B4010E948B332B013C01ADA0BEA0AA0C2B
:1016E000BB1CAA0CBB1CF501E359FA4F5F01238513
:1016F000348545855685C701B6010E948B33A30109
:1017000092010E9497176B017C01D8011B962D91C5
:101710003D914D915C911E97F5016385748585859A
:1017200096850E9497174B015C0160938D0570931D
:101730008E0580938F05909390059B01AC01C701A6
:10174000B6010E948B336B017C01E894F7F82AE024
:1017500037ED43EA5BE3C701B6010E94683618160D
:101760004CF163C188E7682E85E0782E00E010E038
:10177000C201002E02C0959587950A94E2F780FF7A
:1017800010C023E333E34BEC51E4D3016D917D9121
:101790008D919C910E94A336F301608371838283B3
:1017A00093830F5F1F4FF4E06F0E711C0330110520
:1017B000F9F67ECF20E030E040E05FE3C701B601FC
:1017C0000E94683618160CF462CF2FE632E143E827
:1017D0005AE3C501B4010E94A3369B01AC01C701C5
:1017E000B6010E94683618160CF451CF1EC1552060
:1017F00009F4DBCC2091960530919705409198052E
:101800005091990560914105709142058091430581
:10181000909144050E946534811107C120919A0579
:1018200030919B0540919C0550919D056091450527
:101830007091460580914705909148050E94653456
:101840008111F3C020919E0530919F054091A00524
:101850005091A1056091490570914A0580914B0511
:1018600090914C050E946534882309F410CFDDC0A7
:101870002E8D2111DAC0C1018E7D9C7FD9C080914F
:101880006C058130B1F423E333E34BEC51E4609118
:101890008D0570918E0580918F05909190050E9425
:1018A000A33660938D0570938E0580938F0590937A
:1018B000900540908D0550908E0560908F0570903A
:1018C000900520E030E040E850E4C301B2010E94FE
:1018D000A336A30192010E94A3362B013C01A7016C
:1018E0009601C701B6010E94A3369B01AC01C3015A
:1018F000B2010E948B332B013C01A5019401C5016B
:10190000B4010E94A3369B01AC01C301B2010E9445
:101910008B332B013C0120E030E0A9010E946534AB
:1019200087FDA7C2C301B2010E9430372B013C01E1
:10193000A5019401C701B6010E9497179B01AC0154
:10194000C301B20190580E946C342B013C0180917C
:101950006A05833021F477FA709477F87094809157
:101960008D0590918E05A0918F05B091900589A36A
:101970009AA3ABA3BCA320E030E0A901BC01CD0138
:101980000E94653487FF11C077FA709477F87094DD
:1019900089A19AA1ABA1BCA1B05880938D05909369
:1019A0008E05A0938F05B09390050DA11EA1000F89
:1019B000111F000F111F03591A4FA3019201C501F6
:1019C000B4010E94A3369B01AC01C701B6010E947D
:1019D0008B3320E030E040E05FE30E94A336D80183
:1019E0001B966D937D938D939C931E970AA51BA5C3
:1019F000000F111F000F111F03591A4FA30192016D
:101A0000C701B6010E94A3369B01AC01C501B40118
:101A10000E948C3320E030E040E05FE30E94A33678
:101A2000F8016387748785879687C1018E7D907ED4
:101A3000892B09F018C28091850590918605A091A7
:101A40008705B091880580933D0590933E05A0934E
:101A50003F05B093400580916B0580932B058091E5
:101A6000740590917505A0917605B09177058093E6
:101A7000380590933905A0933A05B0933B05C09083
:101A80009105D0909205E0909305F0909405A70100
:101A900096016091340570913505809136059091DD
:101AA00037050E9465348823C1F08091330588236F
:101AB00021F0B701A6010E94DB278091910590914A
:101AC0009205A0919305B09194058093340590936D
:101AD0003505A0933605B093370580919505809321
:101AE0003C058091730590913305981771F04091F2
:101AF00034055091350560913605709137050E9487
:101B0000DB27809173058093330580917205909156
:101B10003205981731F00E9443048091720580933A
:101B2000320580916905813051F460918905709189
:101B30008A0580918B0590918C050E949F1580915C
:101B40006E0580932E0580916C0580932C053E8D4B
:101B50003330F9F480916F0580932F05813089F43B
:101B600080919E0590919F05A091A005B091A1053F
:101B70008093650590936605A0936705B09368050B
:101B800008C01092650510926605109267051092C4
:101B900068058091700590913005981759F08093F1
:101BA00030058CE0FE013D96ADE4B5E001900D926C
:101BB0008A95E1F780916D0580932D0580916905E7
:101BC00090E0FC013297E830F10508F04BC0E75B8C
:101BD000FF4F0C94BE37BE016F5F7F4F8F8D0E9409
:101BE0001825809130059F8D89133CC08CE0FE0143
:101BF0003196ADE4B5E01AC0AE8DAA2349F020E0DD
:101C000040E050E060E87FEB86E995E00E945212E8
:101C100020E040E050E060E87FEBCE0101960E94BA
:101C200052128CE0FE013196A1E4B5E001900D92D4
:101C30008A95E1F717C061E475E086E003C061E4CE
:101C400075E087E00E9418250DC08CE0E6E9F5E01C
:101C5000A9E5B5E0EBCF8CE0E9E5F5E0DF011D9209
:101C60008A95E9F780916A0580932A05883009F4FE
:101C700098C0BE8DB23009F094C090E088309105D4
:101C800008F086C0FC01EF5AFF4F0C94BE3720E0ED
:101C900040E050E060E87FEB0AC040913805509189
:101CA000390560913A0570913B0520912B0586E935
:101CB00095E00E9452126CC0C0903805D090390552
:101CC000E0903A05F0903B0500918D0510918E054E
:101CD00020918F053091900581E08F93E9A5EF93D6
:101CE000F8A5FF9315C0C0903805D0903905E09055
:101CF0003A05F0903B0500918D0510918E052091DD
:101D00008F05309190051F9289A58F9398A59F9379
:101D10008FA0A0902B0548E755E066E975E081E4C7
:101D200095E00E94A0120F900F900F9031C040914B
:101D300038055091390560913A0570913B05E12CC9
:101D40000AC0409138055091390560913A0570916B
:101D50003B05EE24E39400E015C040913805509116
:101D6000390560913A0570913B05E12C0AC040911C
:101D700038055091390560913A0570913B05EE2484
:101D8000E39401E020912B0586E995E00E9411166D
:101D90008CE0E6E9F5E0A1E4B5E001900D928A95CA
:101DA000E1F78091710580933105882309F45DC0C6
:101DB0000E947F1F909131058091A305913069F4B5
:101DC0008230A1F19FB7F8948091010188608093DF
:101DD00001019FBF0E94D21D29C091E090932A0566
:101DE00010922E0510922D0510922B0510923005A1
:101DF00010923305109232058230A9F0BE01635F64
:101E00007F4F80E00E946426882389F18CE0FE01E8
:101E10003D96ADE4B5E001900D928A95E1F70E9400
:101E2000CA270E94380487E00E94082010923105DA
:101E30001CC081E01FC082E01DC088E11BC089E199
:101E400019C084E017C08BE115C085E213C084E19E
:101E500011C08EE10FC08FE10DC086E10BC080E2A2
:101E600009C083E207C084E205C080E003C087E0C8
:101E700001C082E2AB960FB6F894DEBF0FBECDBFB5
:101E8000DF91CF911F910F91FF90EF90DF90CF9056
:101E9000BF90AF909F908F907F906F905F904F908A
:101EA0003F902F900895EBE6F0E08081817F808362
:101EB000E8E6F0E080818E7F8083089584B1817FA1
:101EC00084B985B18E6085B98091BD0683FF0BC052
:101ED00080916B008E6080936B00809168008160C0
:101EE0008093680008950C94530FCF92DF92FF9275
:101EF0000F931F93CF93DF931F92CDB7DEB793B1AC
:101F00009E708091BD0686FD02C08EE098279923C1
:101F1000D9F0C12CD12CF12C01E010E08C2D99834B
:101F20000E94C0279981892339F098010C2C01C0A7
:101F3000220F0A94EAF7F22A8FEFC81AD80AE3E0D0
:101F4000CE16D10459F701C0F12C8F2D0F90DF91DF
:101F5000CF911F910F91FF90DF90CF9008951F9226
:101F60000F920FB60F9211242F933F934F935F93CD
:101F70006F937F938F939F93AF93BF93EF93FF9351
:101F80008091A305813071F08091000181110AC018
:101F90000E94AF169FB7F8948091000183608093F0
:101FA00000019FBFFF91EF91BF91AF919F918F91E2
:101FB0007F916F915F914F913F912F910F900FBE45
:101FC0000F901F9018952F923F924F925F926F92B1
:101FD0007F928F929F92AF92BF92CF92DF92EF92B9
:101FE000FF920F931F93CF93DF93CDB7DEB7679721
:101FF0000FB6F894DEBF0FBECDBF582E8091A2055C
:102000008111A1C124EAA22E26E0B22E9E01235FF7
:102010003F4F190100E010E0C12CD12C7601652C56
:10202000712C802F0E94AC27D1018D931D01C3011B
:10203000002E02C0959587950A94E2F780FF1AC09A
:1020400020E030E040EC5FEBF5016081718182813E
:1020500093810E94A336688B472E4C01262F372F81
:10206000AC01C701B6010E94683618161CF0C8887A
:10207000D42C74010F5F1F4FF4E0AF0EB11C03307E
:10208000110579F68090C3069090C406A090C5060D
:10209000B090C60624E0288B01E065EA75E0CE0129
:1020A00001960E9471332090BE06312CFE013196BC
:1020B00085EA95E09F8B8E8B80E090E0412C10E0CC
:1020C000B701A60170589301082E02C035952795D7
:1020D0000A94E2F720FF28C04394AE89BF891D927D
:1020E0001D921D921C9213979101082E02C03595E6
:1020F00027950A94E2F720FF03C0002319F007C0D8
:10210000002329F0C082D182E282F38204C040839E
:102110005183628373832DE030E02C0F3D1F280F25
:10212000391FD9012C91122B019634962E893F89A3
:102130002C5F3F4F3F8B2E8B8330910521F6642D12
:1021400070E080E090E00E9405350E9430379B01EE
:10215000AC01C501B4010E94A336AB01BC011093D0
:10216000BE054A8B5B8B6C8B7D8B0E94281C20E00C
:102170004A895B896C897D89CE0101960E942F195D
:102180000E94292B0E9403280023E9F00E94750F6A
:10219000FE013D9620E030E090E06191462F412322
:1021A00059F0AC01022E02C0559547950A94E2F70A
:1021B00040FF02C0609516232F5F3F4F233031054B
:1021C00061F71093BE050E94292B80910101847351
:1021D000C1F080910101807329F00E94AF160E9426
:1021E000D21DB1C00111AAC00E94750F8521A9F7A7
:1021F0009FB7F894809101018B7F809301019FBF6D
:1022000004C0812F8C7109F0BFCF0E94B92A0E94AF
:10221000D8188091C7069091C8060E948C1731E0AB
:102220000327C9F020E030E040EA50E46091C9069D
:102230007091CA068091CB069091CC060E94A3367D
:102240006B017C018090BF069090C006A090C106F3
:10225000B090C20610C0C090C906D090CA06E090E7
:10226000CB06F090CC068090C3069090C406A09058
:10227000C506B090C60688898150888B81110DCF24
:102280008091BE06A82FB0E0B98BA88BC090C9067C
:10229000D090CA06E090CB06F090CC06160127013C
:1022A00057FA509457F8509480E8A82E86E0B82E3C
:1022B00095EA892E95E0992E00E010E0C301002EEA
:1022C00002C0959587950A94E2F780FF29C0888916
:1022D0009989002E02C0959587950A94E2F7F50139
:1022E00080FF0EC024A135A146A157A1C701B601A8
:1022F0000E948C33D5012D913D914D915C9106C08A
:102300002081318142815381C201B1010E94A336F3
:102310000E947336D4016D937D938D939C93139794
:102320000F5F1F4FB4E08B0E911CE4E0AE0EB11CAA
:102330000330110519F60E94281C05C08091010187
:1023400082FF56CF4ACF67960FB6F894DEBF0FBE16
:10235000CDBFDF91CF911F910F91FF90EF90DF9054
:10236000CF90BF90AF909F908F907F906F905F9035
:102370004F903F902F900895CF92DF92EF92FF926F
:102380000F931F93CF93DF938C01C4EAD6E0F8013B
:10239000C190D190E190F1908F0120E030E0A9014F
:1023A000C701B6010E946836181654F02991399178
:1023B00049915991C701B6010E94653487FF2BC02E
:1023C0008091A3058830A1F00E94AF169FB7F894C2
:1023D000809100018560809300019FBFDF91CF91C4
:1023E0001F910F91FF90EF90DF90CF900C94D21D32
:1023F0009FB7F894809101018860809301019FBF8D
:102400000E94D21D8091A20581110AC08091A3056E
:102410008111F6CFD9CFF6E0C03BDF0709F0B7CF87
:10242000DF91CF911F910F91FF90EF90DF90CF90B0
:1024300008950E9435240E949F270E94E52A0E9449
:1024400074318DE1E2EAF5E0DF011D928A95E9F74A
:1024500081E08093A20578948091BD0684FF03C03B
:1024600081E08093A3050E9403250E9406050E9437
:10247000CC270E943A040E945E0F0E949E1D0E947B
:10248000D8180E94B92A0E94281C0E941805109290
:10249000A20510920101109200011092A4050E9461
:1024A000FD1EE1CFEF92FF921F93CF93DF9300D0F9
:1024B00000D0CDB7DEB77C01122F8091BD0685FF1D
:1024C0000BC0C70149835A836B837C830E94BC1174
:1024D0007C816B815A8149818091A305823031F1E1
:1024E00049835A836B837C830E94D21D8091A2050D
:1024F00081111CC00E94271949815A816B817C81FE
:10250000882339F00E94F41E49815A816B817C81B5
:10251000E7CF212FC7010F900F900F900F90DF9101
:10252000CF911F91FF90EF900C942F190F900F9067
:102530000F900F90DF91CF911F91FF90EF90089532
:102540002F923F924F925F926F927F928F929F92C3
:10255000AF92BF92CF92DF92EF92FF920F931F93B1
:10256000CF93DF93CDB7DEB7E7970FB6F894DEBF12
:102570000FBECDBF9C8B8B8B1B013A0109871A873D
:102580002B873C87AF8A2D961FAD2D972E962FADAA
:102590002E97298B2F963FAD2F973D8B84E0889EF9
:1025A000A00111245A834983AB89BC89A40FB51FAC
:1025B000B98FA88F460D571D5B8F4A8FFA01808017
:1025C0009180A280B3802D913D914D915C91C50188
:1025D000B4010E948C336C8F7D8F8E8F9F8FF4E0BF
:1025E0001F9F800111242B893C89200F311F39A3A3
:1025F00028A3A301400F511F5BA34AA3DA014D900A
:102600005D906D907C90F9012081318142815381F0
:10261000C301B2010E948C336CA37DA38EA39FA340
:10262000A501940150582D873E874F87588BD301C1
:10263000C201B0588D839E83AF83B887E981FA8148
:10264000E20DF31D2C8D3D8D4E8D5F8D608171816E
:10265000828193810E948B332B013C01F101E00FB9
:10266000F11F2CA13DA14EA15FA1608171818281EA
:1026700093810E948B334B015C01A30192016D8514
:102680007E858F8598890E94A33669837A838B83A0
:102690009C83A50194016D817E818F8198850E9424
:1026A000A3369B01AC0169817A818B819C810E9458
:1026B0008C3369837A838B839C83A50194016D8518
:1026C0007E858F8598890E94A3364B015C01A3010A
:1026D00092016D817E818F8198850E94A3369B0136
:1026E000AC01C501B4010E948B3329813A814B8131
:1026F0005C810E94FF332B013C019D89992399F055
:102700002DEB37E346E055EBC301B2010E9468367A
:1027100087FD1DC02BED3FE049EC50E4C301B20141
:102720000E948B3312C02DEB37E346E055E3C30123
:10273000B2010E946534181654F02BED3FE049ECCD
:1027400050E4C301B2010E948C332B013C01809004
:10275000B9069090BA06A090BB06B090BC06298539
:102760003A854B855C85CA01B9010E948C33A5016D
:1027700094010E948B339B01AC01C501B4010E94FE
:10278000A3360E9430374B015C0120E030E040E08E
:102790005FE3C301B2010E94A33629853A854B85C8
:1027A0005C850E94A3369F77A50194010E946C343A
:1027B0000E9442350E94D9347E8B6D8BDB01AB2B9E
:1027C00009F486C14B01A12CB12CBF89BB2361F058
:1027D000C501B4010E9405359B01AC01C701B601DA
:1027E0000E94A3366B017C01C501B4010E9405352E
:1027F0004B015C019B01AC01C301B2010E946C342E
:1028000069877A878B879C87F989E4E0FE9FC001FE
:1028100011242B893C89280F391F3A8B298BF10110
:10282000E80FF91FD9012D913D914D915C91608187
:102830007181828193810E948B33A50194010E9452
:102840006C346CAB7DAB8EAB9FAB29853A854B85E9
:102850005C85CA01B9010E94A3369B01AC0160E00E
:1028600070E080E090E40E948B334B015C012BEA26
:102870003AEA4AE25EE369857A858B859C850E9407
:10288000A3362B013C0120E030E040E850E4C501D4
:10289000B4010E948C339B01AC01C301B2010E94C0
:1028A000A33668A779A78AA79BA720E030E040E07D
:1028B0005FE3C501B4010E94A3366CA77DA78EA774
:1028C0009FA7198201E010E0ED89FE890E171F070E
:1028D00009F4FEC0B981BC3008F04AC02CA53DA562
:1028E0004EA55FA56D817E818F8198850E94A3365C
:1028F0004B015C0128A539A54AA55BA56D857E85A0
:102900008F8598890E94A336A50194010E948C337B
:10291000B62EA72E982E892E2CA53DA54EA55FA5D7
:102920006D857E858F8598890E94A3362B013C0199
:1029300028A539A54AA55BA56D817E818F819885E3
:102940000E94A3369B01AC01C301B2010E948B33EC
:102950006D877E878F87988BE981EF5FE9838B2D69
:102960009A2DA92DB82D8D839E83AF83B8876EC015
:10297000B80180E090E00E94053529853A854B85B5
:102980005C850E94A3364B015C010E9469346D8313
:102990007E838F839887C501B4010E9426374B013F
:1029A0005C01EA8DFB8D80819181A281B3819C01C4
:1029B000AD01505829833A834B835C83AAA1BBA104
:1029C0008D919D910D90BC91A02D88AB99ABAAAB38
:1029D000BBAB2D813E814F81588569817A818B8186
:1029E0009C810E94A3362B013C01A501940168A99A
:1029F00079A98AA99BA90E94A3369B01AC01C301B6
:102A0000B2010E948C336D877E878F87988BA501DA
:102A1000940169817A818B819C810E94A3364B014C
:102A20005C012D813E814F81588568A979A98AA9C9
:102A30009BA90E94A3369B01AC01C501B4010E9471
:102A40008B336D837E838F83988719822D853E8596
:102A50004F8558896C8D7D8D8E8D9F8D0E948C3316
:102A6000E88DF98D60837183828393832D813E810C
:102A70004F8158856CA17DA18EA19FA10E948C33AE
:102A8000A8A1B9A16D937D938D939C9313972CA9C5
:102A90003DA94EA95FA9E989FA8960817181828186
:102AA00093810E948C33A989BA896D937D938D930C
:102AB0009C9313972F89B701A6018B899C890E944B
:102AC00052128091A205811121C00F5F1F4FFCCED1
:102AD0002F89B701A601C101E7960FB6F894DEBFB2
:102AE0000FBECDBFDF91CF911F910F91FF90EF905F
:102AF000DF90CF90BF90AF909F908F907F906F901E
:102B00005F904F903F902F900C945212E7960FB623
:102B1000F894DEBF0FBECDBFDF91CF911F910F9113
:102B2000FF90EF90DF90CF90BF90AF909F908F90ED
:102B30007F906F905F904F903F902F9008958F926D
:102B40009F92AF92BF92CF92DF92EF92FF924B0192
:102B50005C018091A305823009F447C020E030E099
:102B600040EA51E4C501B4010E94A3360E944235F7
:102B70000E94D9346B017C010E947F1F20E030E06D
:102B80004AE754E4C501B4010E94A3364B015C013D
:102B900082E38C9DB0018D9D700D112480E090E04A
:102BA0000E9405359B01AC01C501B4010E948B3325
:102BB0000E9442350E94D934CB010E948C17C11467
:102BC000D10499F00E94D21D21E0C21AD10880914F
:102BD000A20581110AC08FEF90E722E0815090405A
:102BE0002040E1F700C00000EACFFF90EF90DF90B7
:102BF000CF90BF90AF909F908F9008950E94530FF9
:102C000084E00E94E30F83E00E94E30F0E94D21D44
:102C10008091A205811104C00E9418050C945E0FDA
:102C20000895CF92DF92EF920F93CF93DF9300D06E
:102C300000D01F92CDB7DEB76C018091A305823022
:102C400009F481C02D8349835A836B837C830E945E
:102C50007F1F1092BD05802F0E94A11D0E94B31DF1
:102C60002D8149815A816B817C818823A1F09FB796
:102C7000F894809100018061809300019FBF2D83B3
:102C800049835A836B837C830E94D21D7C816B8134
:102C90005A8149812D818091A205811154C0C601BC
:102CA0000E94521281E0809302019FB7F8948091B4
:102CB00001018260809301019FBF0E94D21D80911B
:102CC000A205811140C08091A3058111F6CF8091AA
:102CD00002018130A9F4EE2051F08CE0E5EAF5E044
:102CE000A1EBB5E001900D928A95E1F70CC09FB77A
:102CF000F894809100018061809300019FBF03C020
:102D000081E08093BD05109202010E94D21D809146
:102D1000A205811118C00E94B92A0E94D8180E94E9
:102D2000281C65EA75E0C6010E9471330F900F9070
:102D30000F900F900F90DF91CF910F91EF90DF9058
:102D4000CF900C94A0210F900F900F900F900F90A8
:102D5000DF91CF910F91EF90DF90CF900895809108
:102D6000010184FD26C09FB7F89480910101806124
:102D7000809301019FBF0E94CA270E94380480915E
:102D8000A305982F9C7021F49091A405913089F4AB
:102D90009FB7843029F4F89480910001806204C0C8
:102DA000F894809100018860809300019FBF0C948B
:102DB000232808956F927F928F929F92AF92BF9235
:102DC000CF92DF92EF92FF920F931F93CF93DF93F7
:102DD0007C018B016A01FB018081F701E80FF11D85
:102DE0002081EF012D3229F42296218166246394FB
:102DF00007C02B3211F0219602C022962181612C4E
:102E0000A12CB12C712C60E070E0CB01FE0130ED03
:102E1000932E920E29E02915C8F0B39428E02B15C3
:102E200088F0A1107A94A5E0B0E09B01AC010E946B
:102E3000C437660F771F881F991F690D711D811D8B
:102E4000911D0BC0A11009C0739407C02EEF921200
:102E500007C0A11005C0AA24A39421962081D6CF33
:102E6000BB2009F449C00E9405354B015C0120E0FC
:102E700030E0A9010E946534882361F18FEF781654
:102E80006CF42AE037ED43E25CE3C501B4010E9433
:102E9000A3364B015C0173947394F0CF78120BC08E
:102EA0002DEC3CEC4CEC5DE3C501B4010E94A33673
:102EB0004B015C010FC0772069F020E030E040E278
:102EC00051E4C501B4010E94A3364B015C017A9420
:102ED00017149CF3662021F0B7FAB094B7F8B094B9
:102EE000F60180829182A282B382CE19DF09C1509D
:102EF000F801C08381E001C080E0DF91CF911F9194
:102F00000F91FF90EF90DF90CF90BF90AF909F9088
:102F10008F907F906F900895009741F0EFE9FFE068
:102F20003197F1F700C000000197F6CF08958F9216
:102F30009F92AF92BF92CF92DF92EF92FF92690180
:102F40007A019B01AC010E94A3364B015C01A701F1
:102F50009601C701B6010E94A3369B01AC01C501D1
:102F6000B4010E948C33FF90EF90DF90CF90BF9020
:102F7000AF909F908F900C9430374F925F926F92EA
:102F80007F928F929F92AF92BF92CF92DF92EF92F9
:102F9000FF920F931F93CF93DF9310912101111193
:102FA00001C012E1115000911F01101709F4EFC088
:102FB00089E2189FE0011124CD5DDE4F8D889E8847
:102FC000AF88B88C69A17AA18BA19CA19B01AC01AF
:102FD0000E948C332DA13EA14FA158A50E94A3367B
:102FE0006B017C019B01AC01B401C5010E946534F9
:102FF00087FF02C064017501A601B701498B5A8B96
:103000006B8B7C8B111101C012E177247A94710EC5
:10301000701619F029E2622E27C080912201081350
:1030200051C00E94072B4EC0679C800111240D5D8A
:103030001E4F711002C092E1792E7A948091220184
:10304000781202C00E94072BF801C588D688E7884D
:10305000F08CA701960161897289838994890E9405
:103060006534811106C0E80180911F017812DCCF20
:1030700029C0F80161A172A183A194A19B01AC01B7
:103080000E948C33F80125A136A147A150A50E94CA
:10309000A33629893A894B895C890E948C334B017C
:1030A0005C01A70196010E946534F80187FF05C005
:1030B000818A928AA38AB48AD6CFC18AD28AE38AC5
:1030C000F48AD1CF60901F01F9E26F9E8001112434
:1030D0000D5D1E4F77247394760C82E1781201C047
:1030E000712C5090210189E2482E751409F44DC0CD
:1030F000479CE0011124CD5DDE4FF8018188928864
:10310000A388B488C988DA88EB88FC88A70196016F
:10311000C501B4010E94653487FF23C0F80161A195
:1031200072A183A194A19B01AC010E948C33F80190
:1031300025A136A147A150A50E94A3369B01AC0151
:10314000C501B4010E948C334B015C01A7019601BB
:103150000E94653487FF05C0898A9A8AAB8ABC8A37
:10316000672C2D893E894F89588D69897A898B8989
:103170009C890E946534811101C0672C7394F2E12F
:103180007F1201C0712C8E01B0CF60921F01DF91C0
:10319000CF911F910F91FF90EF90DF90CF90BF9054
:1031A000AF909F908F907F906F905F904F90089519
:1031B0008CE1E3E0F1E0DF011D928A95E9F71092DE
:1031C00022011092210181E08093200110921F01C1
:1031D00008959091220180912101891769F081E081
:1031E000890F823109F480E020911F01921302C0FF
:1031F00080931F0180932201089580912201909174
:103200002101981739F029E2829FC00111248D5DB8
:103210009E4F089580E090E00895E0912201EF5FD5
:10322000E23109F4E0E080912101E81761F089E2E0
:10323000E89FF0011124ED5DFE4F61897289838959
:1032400094890C94303760E070E0CB01089581E000
:103250002091220190912001291380E008952F925E
:103260003F924F925F926F927F928F929F92AF9216
:10327000BF92CF92DF92EF92FF920F931F93CF9363
:10328000DF93CDB7DEB7AD970FB6F894DEBF0FBEB4
:10329000CDBF142F052F6B8F7C8F822E20912101A3
:1032A00039E2239F10011124F101ED5DFE4F1F0152
:1032B000158616861786108A15A216A217A210A6C2
:1032C000108249E956E766E97EE741A352A363A36A
:1032D00074A35C0140E8E42E46E0F42E9E01235FD7
:1032E0003F4F38A32F8F83E091E09E8F8D8F6F012A
:1032F000FE013196FAA3E9A3912CF5016191719138
:10330000819191915F01F701208131814281538147
:103310000E94A3360E947336EF8DF8A161937193DA
:1033200081939193F8A3EF8FED8DFE8D4190519095
:1033300061907190FE8FED8F641975098609970968
:103340002B013C0197FF07C0442455243201461A43
:10335000570A680A790AF6014182528263827482AE
:10336000F101258536854785508942165306640646
:10337000750610F429013A01F101458656866786E3
:10338000708A0E940735F701208131814281538183
:103390000E946C342B013C01E9A1FAA16193719365
:1033A00081939193FAA3E9A320E030E0A9010E9460
:1033B000653487FF0AC0F1019081892D9DA70E9485
:1033C000B6279DA5892BF1018083A3019201C3013A
:1033D000B2010E94A336F10125A136A147A150A553
:1033E0000E948C33F10165A376A387A390A79394E1
:1033F000F4E0EF0EF11C24E0C20ED11C33E0931276
:103400007CCF0E9430376B017C01F10165A376A36C
:1034100087A390A785859685A785B089892B8A2B58
:103420008B2B09F4FCC120E030E0A901612F702F43
:103430008B8D9C8D0E94653487FD21C0882061F0B2
:10344000A7019601612F702F8B8D9C8D0E94A33652
:10345000162F072F8B8F9C8F20E030E040E85FE332
:10346000612F702F8B8D9C8D0E94653487FF0DC05E
:1034700010E000E030E83B8F8FE38C8F06C019E945
:1034800006E7F6E9FB8F2EE72C8FA701960160E097
:1034900070E080E89FE30E946C3469A77AA78BA74D
:1034A0009CA7EFE0F1E0FAA3E9A32CE836E038A30B
:1034B0002F8FCE010D969A8F898FFE013196FE8F48
:1034C000ED8FC12CD12C7601ED8DFE8D8080918009
:1034D000A280B38020E030E0A901C501B4010E94C0
:1034E0006534882309F47FC029A53AA54BA55CA5BE
:1034F000C501B4010E94A3364B015C01ED8DFE8D28
:1035000060837183828393839B01AC0160E070E0F0
:1035100080E89FE30E946C342B013C01E89477F82B
:10352000EF8DF8A12081318142815381C301B20125
:103530000E94A3366BA37CA38DA39EA39B01AC0129
:10354000612F702F8B8D9C8D0E94653487FF06C084
:103550001BA30CA3FB8DFDA32C8D2EA3F101F1A1C8
:10356000FB8FF101F2A1FC8FF101F3A1FFA3F101A7
:10357000F4A1F8A7EF8DF8A12485358546855785F8
:10358000C301B2010E94A3363B018C019B01AC0137
:103590006B8D7C8D8FA198A50E94653487FF04C038
:1035A0006B8C7C8C0FA118A5C301D801F10181A3FC
:1035B00092A3A3A3B4A3E9A1FAA1208131814281FE
:1035C0005381C501B4010E94A3369B01AC01C70120
:1035D000B6010E948B336B017C011BA10CA1FDA1E4
:1035E000FB8F2EA12C8F8D8D9E8D04969E8F8D8F9F
:1035F000E9A1FAA13496FAA3E9A32F8D38A12C5F93
:103600003F4F38A32F8FE98DFA8D8E179F0709F052
:103610005BCF9091210180912201981306C0F101A6
:10362000118A128A138A148A0BC02FEE3FEF4FE7DC
:103630005FE3C701B6010E946836181634F4F10141
:10364000118E128E138E148E5BC02FEE3FEF4FE75C
:103650005FEBC701B6010E946836181644F03FEED2
:10366000C32EDD24DA943FE7E32E3FEBF32EA701D0
:10367000960160E070E080E89FE30E948B3320E0D9
:1036800030E040E05FE30E94A3360E9430376B01D8
:103690007C012091B5063091B6064091B706509155
:1036A000B806F10161A172A183A194A10E94A33681
:1036B000A70196010E94A3364B015C01A701960168
:1036C00060E070E080E89FE30E948B339B01AC01D7
:1036D000C501B4010E946C346B017C0120E030E034
:1036E000A9010E94653487FF04C0C12CD12CE12CB4
:1036F000F12CA601B701F101418F528F638F748FB6
:10370000212F302F4B8D5C8D612F702F8B8D9C8DD9
:103710000E94A336162F072FF82EE92E862F902F02
:10372000AF2DBE2DF101858F968FA78FB0A3A18CF1
:10373000B28CC38CD48C60901B0170901C01809063
:103740001D0190901E019301A401612F702F8F2DF8
:103750009E2D0E94653487FD0BC09301A401B50125
:10376000C6010E94653487FD11C0530164010EC07B
:10377000212F302F4F2D5E2DB501C6010E946534DB
:1037800087FD04C0A12EB02ECF2CDE2CC501D601A2
:10379000F101858B968BA78BB08F8CE0FE01319663
:1037A000AFE0B1E001900D928A95E1F7812F902F63
:1037B000AF2DBE2D80931B0190931C01A0931D0182
:1037C000B0931E018CE0FE013D96A3E0B1E00190B4
:1037D0000D928A95E1F780912001809321018F5FFE
:1037E000823109F480E080932001AD960FB6F89401
:1037F000DEBF0FBECDBFDF91CF911F910F91FF9024
:10380000EF90DF90CF90BF90AF909F908F907F9080
:103810006F905F904F903F902F900C94BD17AD9696
:103820000FB6F894DEBF0FBECDBFDF91CF911F91D1
:103830000F91FF90EF90DF90CF90BF90AF909F904F
:103840008F907F906F905F904F903F902F90089552
:103850008091A5059091A605A091A705B091A80516
:103860008093030190930401A0930501B093060196
:103870008091A9059091AA05A091AB05B091AC05E6
:103880008093070190930801A0930901B0930A0166
:103890008091AD059091AE05A091AF05B091B005B6
:1038A00080930B0190930C01A0930D01B0930E0136
:1038B00008958091210190912201891708F48E5E6C
:1038C000891B08950E94072B8091220180931F017C
:1038D0000C94BD17CF93DF93EC018991882319F0E5
:1038E0000E944B24FACFDF91CF910895CF93DF93BD
:1038F000FC018491EF012196882321F00E944B2442
:10390000FE01F7CFDF91CF910895EF92FF920F93D1
:103910001F93CF93DF931F92CDB7DEB7262FEDB65F
:10392000FEB66DB77EB7641B71090FB6F8947EBF03
:103930000FBE6DBF0DB71EB70F5F1F4F302FF801C1
:103940009E2F931B941728F4622F0E949037919317
:10395000F7CF442361F0F801E40FF11D3197808126
:10396000805D49830E944B2449814150F2CF0FB6BC
:10397000F894FEBE0FBEEDBE0F90DF91CF911F9168
:103980000F91FF90EF90089548E062E00C94851C41
:103990008A3020F0843620F442E003C041E001C0C8
:1039A00043E06AE00C94851C8F929F92AF92BF9285
:1039B000CF92DF92EF92FF920F931F93CF93DF93FB
:1039C000CDB7DEB72A970FB6F894DEBF0FBECDBFD6
:1039D0006B017C01142F20E030E0A9010E946534C6
:1039E00087FF07C08DE20E944B24F7FAF094F7F8A6
:1039F000F094012F023060F020E030E048EC52E417
:103A0000C701B6010E94A3366B017C010250F2CFC0
:103A100010FF0AC020E030E040E251E4C701B601E7
:103A20000E94A3366B017C0120E030E040E05FE3C0
:103A3000C701B6010E948C330E94D434E1E0F0E06B
:103A4000EC0FFD1FE10FF11D2EE22083D12C5AE077
:103A5000852E912CA12CB12C611571058105910544
:103A6000A9F0D11201C0D394EE24E394F12CEC0E12
:103A7000FD1EED0CF11CA50194010E949C37605DB8
:103A8000F7016083B901CA01D394E6CF80E3D11670
:103A900048F4E1E0F0E0EC0FFD1FED0DF11D808337
:103AA000D394F5CF8D2DD1120BC0D394D3948F5FC7
:103AB000E1E0F0E0EC0FFD1FE80FF11D80E38083F3
:103AC000DD2041F0FE01ED0DF11D80810E944B24AF
:103AD000DA94F6CF2A960FB6F894DEBF0FBECDBFAC
:103AE000DF91CF911F910F91FF90EF90DF90CF90DA
:103AF000BF90AF909F908F9008952091BD0620FFBA
:103B000008C02BE832E441E25DE30E94A33644E0C2
:103B100001C043E00C94D41C2091BD0620FF08C0D6
:103B20002BE832E441E25DE30E94A33641E001C0AC
:103B300040E00C94D41C43E00C94D41C3D98459A6E
:103B400008951092BF059091BD0697FD03C090E2C5
:103B50009093BF05882331F08091BF0590E28927BB
:103B60008093BF05089586B180729091BF05892723
:103B70000895809102018130A1F40E94B31D882331
:103B800081F0109202018CE0E5EAF5E0A1EBB5E0EE
:103B900001900D928A95E1F78091010180648093F4
:103BA00001010895EF92FF920F931F93CF93DF933C
:103BB000D1E008E080E2F82E10E190E4E92EC09117
:103BC0000001CC2389F1D093A305C1FF02C081E09D
:103BD0000FC0C2FF02C082E00BC0C3FF02C083E07F
:103BE00007C0C4FF02C084E003C0C5FF03C085E076
:103BF0000E94DE1FC0FD08C08FB7F89490910001AD
:103C0000109200018FBF10C081E00E9408209FB772
:103C1000F894809101018F7E809301019FBF809174
:103C2000010184FFFCCFE8CFC0910101CC2309F44E
:103C3000BCC0C4FF04C081E08093A205CEC0C0FF19
:103C40000AC00E942D239FB7F894809101018E7FB6
:103C5000809301019FBF8C2F887609F43CC080912E
:103C6000A305882349F0982F9C7769F1883021F4C7
:103C70000E94072BD093A4058091A305811103C056
:103C800092E09093A405C6FF09C0883011F4E09239
:103C9000A3058091A40588608093A405C3FF05C097
:103CA0008091A30585FF1093A305C5FF0CC086E096
:103CB0000E9408208091A40581FDC46084608093E7
:103CC000A405F092A3059FB7F8948091010187792C
:103CD000809301019FBFC1FF48C08C2F8876E9F512
:103CE0008091A305882331F08075B9F18091A405F6
:103CF00081FF33C08091A40582FF1CC080913305F1
:103D0000882371F040913405509135056091360556
:103D1000709137050E94D02780EA9FE00E948C179F
:103D200080913205882331F00E943D0488EE93E0B3
:103D30000E948C170E94FD18892B59F08091A405D0
:103D400083FD07C00093A3050E94292B0E9403282E
:103D500002C01092A3051092A4059FB7F894809119
:103D600001018D7F809301019FBFC2FF1EC0809122
:103D7000A305807371F08091A40582FF04C00E94A6
:103D8000CA270E9438048091A40582608093A4050C
:103D900004C01092A4051092A3059FB7F8948091D7
:103DA00001018B7F809301019FBF8091A3058C77D8
:103DB00011F00E94292B8091A305803251F480914B
:103DC000A40581FF06C00E94BE31811102C010937C
:103DD000A3058091A4058111F2CEDF91CF911F91AF
:103DE0000F91FF90EF9008959FB7F8948091010193
:103DF0008260809301019FBF0895CF93DF930E945B
:103E000037208091A305813021F482E00E940820B0
:103E10002FC00E94BE31882341F080910101806251
:103E2000809301010E94D21D02C01092A30585E07B
:103E300094E00E94C0311CC08D3079F0DD2399F1EF
:103E4000893221F4D13009F04CC0D0E00E94912495
:103E50008F3F09F448C08A3079F7EC2FF0E0EB5F30
:103E6000FB4F10820E94D21D8091A205882311F081
:103E7000C0E0EBCF80910504811103C00E94901F28
:103E8000F7CF843229F485E094E00E94DF31F6CF49
:103E90008091A305813011F489E0F0CF85E094E0B2
:103EA0000E941E05EBCF813288F28F3279F2883280
:103EB000B1F08B33B1F0CF3428F08BE00E94901F2B
:103EC000C0E0C4CF2C2F30E0CF5F9FE9980FF901FD
:103ED000EB5FFB4F9A3108F480528083B7CFD1E07B
:103EE000B5CFD2E0B3CF0E94F41E0E94D21D8091C4
:103EF000A205882309F4AACFDF91CF9108950E94EB
:103F0000F41E0E94D21D8091A205811108C00E945A
:103F1000FD18892BB1F78091A305883091F308959E
:103F2000CF93C82F811103C083E498E044C08BE392
:103F300098E00E94761C4C2F50E0FA013197E63150
:103F4000F10580F5E75AFF4F0C94BE3783E298E005
:103F500002C081E198E00E94761C2BC08FEF97E0B1
:103F6000FACF85EF97E0F7CF84EE97E0F4CF85EDB9
:103F700097E0F1CF84EB97E0EECF8BEA97E0EBCFC1
:103F800080EA97E0E8CF8DE897E0E5CF8FE797E00C
:103F9000E2CF89E697E0DFCF85E597E0DCCF81E4EB
:103FA00097E0D9CF8FE297E00E94761C8C2F0E9479
:103FB000C81C8CE297E0CF910C94761CCF93C82F4D
:103FC00084E297E00E94761CC33091F03CF4C1304B
:103FD00061F0C230A1F48EE097E00FC0C43059F018
:103FE000C53069F484EE96E008C089E197E005C029
:103FF0008BEF96E002C080EF96E00E94761C81EE87
:1040000096E00E94761C84EF91E0CF910C948C177F
:10401000CF93C82F8FED96E00E94761C8C2F90E0F6
:10402000FC013197E830F105E8F4E159FF4F0C94B9
:10403000BE378DEC96E014C089EB96E011C087EA9C
:1040400096E00EC08FE996E00BC086E996E008C0C6
:104050008BE896E005C083E896E002C080E796E032
:104060000E94761C8CE696E0CF910C94761C8FE42F
:1040700096E00C94761C8BE095E00C94761CFF92F5
:104080000F931F93CF93DF9387E095E00E94761CF8
:104090008091B0060E94C81C8EEE94E00E94761CAF
:1040A0008091B3060E94C81C80ED94E00E94761CAB
:1040B0008091B1060E94C81C87EB94E00E94761C98
:1040C0008091B1060E94C41C80EB94E00E94761C93
:1040D0008091B2060E94C81C88E994E00E94761C78
:1040E0008091B2060E94C41C81E994E00E94761C73
:1040F0008091BD0682FB882780F90E94C81C80E75A
:1041000094E00E94761C8091BD0686FB882780F98A
:104110000E94C81C80E594E00E94761C8091BD0638
:10412000881F8827881F0E94C81C80E394E00E9493
:10413000761C8091B4060E94C81C8AE194E00E941B
:10414000761C8091B4060E94C41C82E194E00E9417
:10415000761C6091B5067091B6068091B706909175
:10416000B8060E949B1D82EF93E00E94761C60912E
:10417000B9067091BA068091BB069091BC060E9468
:104180009B1D87ED93E00E94761C8091BD06817097
:104190000E94C81C8AEB93E00E94761C8091BD06A9
:1041A00085FB882780F90E94C81C8FE993E00E9454
:1041B000761C8091BD0683FB882780F90E94C81C6D
:1041C00084E893E00E94761C8091BD068295817000
:1041D0000E94C81C88E693E00E94761C8091BE066F
:1041E0000E94C81C8EE493E00E94761C8091BE065B
:1041F0000E94C41C86E493E00E94761C6091BF0676
:104200007091C0068091C1069091C2060E949B1DCC
:1042100089E293E00E94761C6091C3067091C40607
:104220008091C5069091C6060E949B1D8CE093E08C
:104230000E94761C8091C7060E94C81C8DEE92E0F9
:104240000E94761C6091C9067091CA068091CB06C7
:104250009091CC060E949B1D84ED92E00E94761CFA
:1042600084E6F82E10E0C0E8D6E000E082ED92E0AF
:104270000E94761C802F8F0D0E94C81C80ED92E05A
:104280000E94761C123071F01330B9F0113029F011
:10429000688179818A819B8117C06C857D858E8537
:1042A0009F8512C020E030E041E655E4688D798DAD
:1042B0008A8D9B8D0E946C3407C08CA19DA1AEA1FC
:1042C000BFA1BC01CD0190580E949B1D8DEC92E0D6
:1042D0000E94761C013029F0023031F08BEC92E024
:1042E00005C089EC92E002C087EC92E00E94761C47
:1042F000123051F0133059F0113019F08DEB92E07B
:1043000008C08BEA92E005C08AE992E002C08AE820
:1043100092E00E94761C86E892E00E94761C0F5F75
:104320002496033009F0A2CF8AE0F80E1F5F8CE8D4
:10433000F81299CFDF91CF911F910F91FF900895BF
:10434000CF9380E892E00E94761CC0E06C2F81EB56
:1043500095E00E9457330E947D1DC23021F08EE708
:1043600092E00E94761CCF5FC33081F78CE792E029
:104370000E94761C8091BD050E94C81C88E792E0CF
:10438000CF910C94761CEF92FF920F931F93CF93D3
:10439000DF93CDB7DEB72C970FB6F894DEBF0FBE14
:1043A000CDBFF12CBE016F5F7F4F8F2D0E94642621
:1043B000811104C087E00E94901F69C085E792E0E8
:1043C0000E94761C86E0F81631F0E7E0FE1208C085
:1043D0008FE692E002C082E792E00E94761C04C061
:1043E00086E38F0D0E94C81C8DE692E00E94761C29
:1043F0008E010F5F1F4FE12CF80161917191819146
:1044000091918F010E947D1DF2E0EF1619F08BE66D
:1044100092E002C087E692E00E94761CE39483E07B
:10442000E812EACFF394E8E0FE12BCCF81E692E016
:104430000E94761C09E515E0F12CF801619171915B
:10444000819191918F010E947D1DF2E0FF1619F07C
:104450008FE592E002C08BE592E00E94761CF39417
:1044600083E0F812EACF85E592E00E94761C609125
:1044700065057091660580916705909168050E94B9
:104480007D1D81E592E00E94761C0E94A0212C9661
:104490000FB6F894DEBF0FBECDBFDF91CF911F9155
:1044A0000F91FF90EF9008958FE492E00E94761CA8
:1044B00080912A05823091F038F4882361F08130B0
:1044C000A9F489E492E00CC0833069F0883071F47B
:1044D0008FE392E005C08CE492E002C086E492E0B3
:1044E0000E94761C0CC083E492E0FACF8AE392E04B
:1044F0000E94761C80912A0582500E94C81C87E386
:1045000092E00E94761C809130058A5C0E94C81C53
:1045100080912E05813049F028F0823051F488E2F4
:1045200092E005C082E392E002C08DE292E00E9438
:10453000761C80912C05811103C083E292E002C0B9
:104540008EE192E00E94761C80912D05811103C0BE
:1045500089E192E002C084E192E00E94761C8091A1
:104560002B05813019F48FE092E002C08AE092E0DE
:104570000E94761C80913105813049F028F082300C
:1045800051F48EEF91E005C086E092E002C082E037
:1045900092E00E94761C80913305813031F040F02A
:1045A000823051F486EF91E005C08AEF91E002C0BD
:1045B00082EF91E00E94761C80913205882329F0D9
:1045C000823039F48AEE91E002C08EEE91E00E94D2
:1045D000761C87EE91E00E94761C80913C050E943B
:1045E000C81C84EE91E00E94761C609138057091A1
:1045F000390580913A0590913B050E948C1D80EE13
:1046000091E00C94761C1F93CF93DF93182FEB014E
:104610008DED91E00E94761C812F0E94C81C8BEDCD
:1046200091E00E94761CCE010E946A1C88ED91E008
:10463000DF91CF911F910C94761CCF93DF93EC0107
:1046400088EC91E00E94761CCE010E946A1C84ECEA
:1046500091E0DF91CF910C94761CBF92CF92DF92C4
:10466000EF92FF920F931F93CF93DF93CDB7DEB7F7
:1046700068970FB6F894DEBF0FBECDBF8CE0E5EAB9
:10468000F5E0DE011D9601900D928A95E1F780918B
:10469000A3058430E9F040F48130E9F080F0823005
:1046A00009F58FE991E01CC0803179F018F4883069
:1046B00049F018C0803291F0803421F013C08EEBA5
:1046C00091E00EC089EB91E00BC083EB91E008C054
:1046D0008DEA91E005C086EA91E002C089E991E0A7
:1046E0000E94761C8091B406837039F0BE01635F2E
:1046F0007F4FCE0101960E9471338091B40680FDF8
:1047000005C08091B40681FF6DC01FC082E991E0B1
:104710000E94761C69817A818B819C810E947D1D1B
:1047200080E991E00E94761C6D817E818F81988561
:104730000E947D1D80E991E00E94761C69857A8542
:104740008B859C850E947D1DDCCF89E891E00E94CD
:10475000761C9DE4E92E95E0F92E8E010F5F1F4F28
:10476000B12C6801F70161917191819191917F0163
:1047700020853185428553850E948C339B01AC0195
:10478000F80160817181828193810E948B33F801ED
:104790006083718382839383F2E0BF120FC0209104
:1047A00065053091660540916705509168050E9446
:1047B0008B33F80160837183828393830C5F1F4F77
:1047C000F60160817181828193810E947D1DF2E0FA
:1047D000BF1621F087E891E00E94761CB39423E095
:1047E000B212BFCF8091B40682FF08C081E891E089
:1047F0000E94761C0E94591C0E94C81C8091B4061D
:1048000083FF08C08CE791E00E94761C0E942C2454
:104810000E94C81C8091B40684FF0AC086E791E01C
:104820000E94761C0E94750F43E062E00E94851C86
:1048300082E791E00E94761C68960FB6F894DEBF7E
:104840000FBECDBFDF91CF911F910F91FF90EF90E1
:10485000DF90CF90BF9008959091570480915804B5
:10486000891708F48058891B0895E0ECF0E08081F6
:10487000826080831092C50080E18093C400E1ECE7
:10488000F0E0808180618083808188608083808186
:10489000806880830895E091560491E09E0F9034E3
:1048A00009F490E020915504921305C02091010174
:1048B00024FFF8CF0895F0E0E054FA4F80839093FE
:1048C00056048091C10080628093C10008951F92B8
:1048D0000F920FB60F9211248F939F93EF93FF9334
:1048E00080915504E82FF0E0E054FA4F90819093C6
:1048F000C6008F5F803409F480E080935504909166
:104900005604891305C08091C1008F7D8093C1003A
:10491000FF91EF919F918F910F900FBE0F901F907D
:1049200018959091570480915804891761F0E92FE8
:10493000F0E0E050FA4F80819F5F903809F490E0FA
:104940009093570408958FEF08951F920F920FB61A
:104950000F9211242F933F934F935F936F937F9305
:104960008F939F93AF93BF93EF93FF938091C60074
:104970008F33A9F050F4883109F1813211F59FB7D6
:10498000F89480910101886015C0803471F08E37F1
:10499000C1F49FB7F8948091010182600BC09FB76A
:1049A000F89480910101816005C09FB7F8948091CF
:1049B00001018062809301019FBF14C00E94AF1665
:1049C00011C0E091580491E09E0F903809F490E0F6
:1049D00020915704921731F0F0E0E050FA4F8083B5
:1049E00090935804FF91EF91BF91AF919F918F9158
:1049F0007F916F915F914F913F912F910F900FBEDB
:104A00000F901F9018958091580480935704089533
:104A100021E5829FC001112440E550E09D5F0C9488
:104A2000830440E550E0BC018EEA93E00C948304DB
:104A30002DE0829FC00111244CE050E09E5F0C9459
:104A4000830469E080E090E00E9461044DE450E05E
:104A500060E876E081E090E00C948304EF92FF92AE
:104A60000F931F93CF93DF93CDB7DEB72C970FB67D
:104A7000F894DEBF0FBECDBF182F80FFC1C08AE003
:104A80008093B00689E18093B3061092B10610922C
:104A9000B20683E08093B4068AE097EDA3E2BCE31C
:104AA0008093B5069093B606A093B706B093B80668
:104AB0008FE692E1A3E0BBE38093B9069093BA0638
:104AC000A093BB06B093BC061092BE0680E090E0B7
:104AD000A8ECB1E48093BF069093C006A093C106F2
:104AE000B093C20640E050E06AEF73E44093C3061F
:104AF0005093C4066093C5067093C6068AEF90E093
:104B00009093C8068093C70680E090E0A0E8BFE3DA
:104B10008093C9069093CA06A093CB06B093CC06A7
:104B20001092BD0680E090E0AAE7B3E4809380068F
:104B300090938106A0938206B093830680938406A7
:104B400090938506A0938606B09387068093880687
:104B500090938906A0938A06B0938B0640938C06A7
:104B600050938D0660938E0670938F064093900647
:104B70005093910660939206709393064093940627
:104B800050939506609396067093970640E050EA1E
:104B90006CE077E4409398065093990660939A06E8
:104BA00070939B0640939C0650939D0660939E06CF
:104BB00070939F064093A0065093A1066093A206AF
:104BC0007093A30640E050E068E473EC4093A406C1
:104BD0005093A5066093A6067093A7064093A80677
:104BE0005093A9066093AA067093AB064093AC0657
:104BF0005093AD066093AE067093AF060E942125D8
:104C000011FF10C0CE0101967C018CE0F7011192DA
:104C10008A95E9F700E0B701802F0E9418250F5F01
:104C20000830C9F712FF0AC060E080E093E00E94FC
:104C3000610460E081E593E00E94610413FF05C018
:104C400060E08EEA93E00E9461042C960FB6F8941F
:104C5000DEBF0FBECDBFDF91CF911F910F91FF90AF
:104C6000EF9008951F93CF93DF93182FEB0181E509
:104C7000189FB00111247D5F40E550E0CE010E94F5
:104C8000C104892B39F41882BE01812F0E940825A6
:104C900080E001C081E0DF91CF911F910895CF9313
:104CA000DF93EC0140E550E06EEA73E00E94C1043E
:104CB000892B31F41882CE010E94112580E001C0B9
:104CC00081E0DF91CF9108951F93CF93DF93182F49
:104CD000EB018DE0189FB00111247E5F4CE050E0A5
:104CE000CE010E94C104892B59F48CE0FE0111927F
:104CF0008A95E9F7BE01812F0E94182580E001C046
:104D000081E0DF91CF911F91089580E090E00E94B3
:104D10005904893059F44DE450E061E070E080E8D6
:104D200096E00E94C10421E0892B09F420E0822F43
:104D30000895CF92DF92EF92FF92CF93DF93C82F27
:104D40006A017B0120E030E0A901C701B6010E94A1
:104D5000653487FDE6C0C43608F445C02CE92C0F45
:104D600080E02330B8F530E0823079F0F901EE0FC1
:104D7000FF1FEE0FFF1F833011F1813019F0E05853
:104D8000F94F23C0E457F94F20C0E901CC0FDD1FD4
:104D9000CC0FDD1FC856D94F20E030E040E752E489
:104DA000C701B6010E94A33620E030E040E752E49C
:104DB0000E94A336688379838A839B83AEC0EC55B7
:104DC000F94FF7FAF094F7F8F094C082D182E282BA
:104DD000F382A3C08F5F2A3008F4A5C0843009F4A1
:104DE000A2C02A50BECFC701B6010E9471370E94EF
:104DF000D9348C2F90E08C31910508F094C0FC01DF
:104E0000E958FF4F0C94BE37633008F48EC06093AE
:104E1000B00683C06093B30680C06093B10602C041
:104E20006093B2060E947D2A78C08091BD066623F9
:104E300011F0846007C08B7F05C08091BD0666239A
:104E400021F080648093BD0668C08F7BFBCF80918A
:104E5000BD06662311F08068F5CF8F77F3CF60939E
:104E6000B4065BC0C092B506D092B606E092B70613
:104E7000F092B80652C0C092B906D092BA06E0923B
:104E8000BB06F092BC0649C08091BD06662311F0B6
:104E90008160D8CF8E7FD6CF8091BD06662321F06A
:104EA00084FF45C08062CECF8F7DCCCF8091BD0680
:104EB000662311F0886001C0877F8093BD060E9441
:104EC0005E0F2BC08091BD06662311F08061BACFC2
:104ED0008F7CB8CF6093BE0620C0C092BF06D09230
:104EE000C006E092C106F092C20617C0C092C30687
:104EF000D092C406E092C506F092C6060EC070E0DD
:104F00007093C8066093C70608C0C092C906D092C5
:104F1000CA06E092CB06F092CC060E94212580E0E2
:104F200007C084E005C083E003C086E001C08AE0DA
:104F3000DF91CF91FF90EF90DF90CF9008950E9486
:104F40008526811108C087E00E94901F8FEF0E9484
:104F50002E250C943F200895882321F0813021F4E0
:104F600088E0089584E0089580E10895882321F081
:104F7000813021F480E4089580E2089580E8089566
:104F8000882321F0813021F484E0089582E008959F
:104F900088E008952C9A0895249A259A0C94CA279B
:104FA000811102C00C94CA27813011F42D9801C0E0
:104FB0002D9A2C980895CF93DF9300D000D01F92A4
:104FC000CDB7DEB79091A3059230A9F04A835B83F9
:104FD0006C837D8389830E947F1F4A815B816C8102
:104FE0007D8189810F900F900F900F900F90DF912E
:104FF000CF910C94D0270F900F900F900F900F909F
:10500000DF91CF9108958091BD0682FF02C0289A5A
:1050100001C028988091A3058C70A1F0809189042B
:1050200080939D0480918A0480939C048091B006B3
:10503000880F8450819580939B0480916F008260DB
:1050400080936F00089580916F008D7F80936F0033
:1050500080918100887F8160809381001092880414
:105060008091B3068F3F21F490910001992349F07C
:105070009091A305943029F090E00E948C1781E074
:1050800001C080E09091BD0692FF02C091E08927A7
:10509000882311F0289A0895289808951F920F9256
:1050A0000FB60F9211242F933F934F935F936F93FB
:1050B0007F938F939F93AF93BF93CF93DF93EF93A0
:1050C000FF93809188048111EFC19BB180919D0471
:1050D000807E9F71892B8BB98BB1837E90919C04CC
:1050E000892B8BB980919B0486BD82E085BD81E0D0
:1050F0008093880478948091AF049091B004892BB8
:1051000009F0A4C080918D0490918C04981709F443
:1051100092C0E0918D0486E0E89FF0011124EF54E5
:10512000FB4FF093B004E093AF048381948190939C
:10513000890080938800808191819093AB04809353
:10514000AA04A2818091AC048A1771F1A093AC04E7
:1051500081E1A89FD0011124AB52BB4FB093AE04A4
:10516000A093AD041D968D919D910D90BC91A02DA5
:10517000B695A795979587958093960490939704F5
:10518000A0939804B093990480939204909393040D
:10519000A0939404B093950480938E0490938F040D
:1051A000A0939004B0939104C091AD04D091AE044B
:1051B000809189049881892780939D042581898124
:1051C0009A81AB81BC81022E04C0B695A7959795B4
:1051D00087950A94D2F780939E0490939F04A0939E
:1051E000A004B093A1048D819E81AF81B885022E69
:1051F00004C0B695A795979587950A94D2F78093A2
:10520000A2049093A304A093A404B093A504898559
:105210009A85AB85BC8504C0B695A795979587956B
:105220002A95D2F78093A6049093A704A093A8048C
:10523000B093A9040BC00E9423289FB7F8948091D3
:1052400001018460809301019FBF2EC10E94B91D9E
:1052500010929C0480919E0490919F04A091A004C0
:10526000B091A10440918E0450918F0460919004FC
:1052700070919104840F951FA61FB71F80938E0411
:1052800090938F04A0939004B0939104E091AD04A7
:10529000F091AE0445855685678570894817590792
:1052A0006A077B0768F524E020939C0445855685B2
:1052B00067857089841B950BA60BB70B80938E04B2
:1052C00090938F04A0939004B093910420818091D7
:1052D000A5059091A605A091A705B091A80525FF69
:1052E00004C00197A109B10903C00196A11DB11D18
:1052F0008093A5059093A605A093A705B093A80554
:105300008091A2049091A304A091A404B091A5045B
:10531000409192045091930460919404709195048B
:10532000840F951FA61FB71F809392049093930438
:10533000A0939404B093950445855685678570893C
:10534000481759076A077B0778F520919C04286065
:1053500020939C044585568567857089841B950B31
:10536000A60BB70B8093920490939304A09394049C
:10537000B093950420818091A9059091AA05A091F0
:10538000AB05B091AC0526FF04C00197A109B10996
:1053900003C00196A11DB11D8093A9059093AA0594
:1053A000A093AB05B093AC058091A6049091A7049F
:1053B000A091A804B091A90440919604509197043B
:1053C0006091980470919904840F951FA61FB71FD0
:1053D0008093960490939704A0939804B0939904B3
:1053E0004585568567857089481759076A077B0781
:1053F00078F520919C04206120939C044585568576
:1054000067857089841B950BA60BB70B8093960458
:1054100090939704A0939804B0939904208180916D
:10542000AD059091AE05A091AF05B091B00527FFF5
:1054300004C00197A109B10903C00196A11DB11DC6
:105440008093AD059093AE05A093AF05B093B005E2
:105450008091A305843039F48091BE0590919C041D
:10546000892380939C048091AA049091AB040197B6
:105470009093AB048093AA04892B69F41092B00432
:105480001092AF0480918D048F5F80938D048630DD
:1054900011F410928D0480918A0490919C048927C4
:1054A00080939C0410928804FF91EF91DF91CF913B
:1054B000BF91AF919F918F917F916F915F914F912C
:1054C0003F912F910F900FBE0F901F9018951F9234
:1054D0000F920FB60F9211248F939F939BB18091DF
:1054E0008A048C71937E892B8BB915BC9F918F9107
:1054F0000F900FBE0F901F901895FF920F931F9360
:10550000CF93DF9310928A0410928904C0E0D0E018
:105510000C2F1C2F2091B10630E08C2F0C2E02C0D6
:10552000359527950A94E2F720FF07C0F0908A048A
:105530000E94AC278F2980938A042091B20630E024
:1055400002C0359527951A95E2F720FF08C0109103
:105550008904802F0E94B627812B8093890421968D
:10556000C330D105A9F6DF91CF911F910F91FF9024
:1055700008950E9423288BE2E9E5F4E0DF011D9203
:105580008A95E9F783E2EEE8F4E0DF011D928A955F
:10559000E9F7109287041092860410928D041092FD
:1055A0008C0481E080938B04109288040E947D2AF1
:1055B0008BB1837E90918A04892B8BB98BB18F71CB
:1055C00090918904892B8BB908958AB18C618AB92D
:1055D000209A8AB1806E8AB9E1E8F0E080818F7EFE
:1055E0008083808188608083E0E8F0E080818C7F28
:1055F000808380818F708083EEE6F0E08081887FF9
:10560000808314BC15BC8081816080830895CF9312
:10561000DF93C0918604D09187042097B9F081E090
:1056200080935A04609170047091710480917204A7
:10563000909173049B01AC010E94A336698B7A8B15
:105640008B8B9C8B1092870410928604DF91CF91F4
:1056500008952F923F924F925F926F927F928F9216
:105660009F92AF92BF92CF92DF92EF92FF920F93F1
:105670001F93CF93DF93CDB7DEB7E5970FB6F894BE
:10568000DEBF0FBECDBF8091A305807709F40AC2AB
:1056900020E030E0A9016091700470917104809164
:1056A0007204909173040E9465348111FBC103C69A
:1056B0008091860490918704892B09F4FAC1809126
:1056C0008C04F6E0F89FF0011124EF54FB4FFE83A9
:1056D000ED83809159048283209186043091870460
:1056E0003E872D87D9019596BC91BCA7F901F6A1FB
:1056F000FDA7D9019796BC91BEA7F901F0A5FFA718
:1057000020916304309164044091650450916604D3
:105710006CA57DA58B2F9F2F0E948B3368A779A73F
:105720008AA79BA720E030E0A9010E94653487FF8B
:1057300004C018A619A61AA61BA620917C04288FBF
:1057400030917D04398F40917E044A8F50917F04BF
:105750005B8F809174048C8F909175049D8FA091C4
:105760007604AE8FB0917704BF8FE0918004E8A3F8
:10577000F0918104F9A3209182042AA3309183043B
:105780003BA340916C044CA350916D045DA38091A8
:105790006E048EA390916F049FA3209178043091A2
:1057A000790440917A0450917B0428AB39AB4AAB21
:1057B0005BAB30917004398340917104498720902C
:1057C00072043090730450916B045F878CA58C8BAE
:1057D0009DA59D8BAEA5AE8BBFA5BF8B3EE3C32E13
:1057E00033ECD32E3EE2E32E39E3F32E188A198AE6
:1057F0001A8A1B8A26013701EF85E111B4C3AD85F2
:10580000BE8591962D913D914D915C919497C701E4
:10581000B6010E94A3364B015C0120E030E040E07D
:105820005FE30E94A3369B01AC0169817985C101C8
:105830000E948C339B01AC01C701B6010E94A336C4
:105840009B01AC016C897D898E899F890E948B3375
:105850008B018DAB9CAB288D398D4A8D5B8D0E9461
:10586000653487FF86C3288D398D4A8D5B8D6CA585
:105870007DA58EA59FA50E948B339B01AC010E9444
:105880008C336B017C012C8D3D8D4E8D5F8D69813C
:105890007985C1010E948C339B01AC01C701B6011F
:1058A0000E946C346B017C0128A139A14AA15BA143
:1058B000688D798D8A8D9B8D0E946534882309F4CB
:1058C00055C3B1E0BF87FC8DF9832D8D29872E8CC0
:1058D0003F8C088D198D3A8D3DAB4B8D4CABA7019C
:1058E0009601688979898A899B890E948C33688BA3
:1058F000798B8A8B9B8BA30192010E94653487FD73
:10590000F2C328A539A54AA55BA5B8018DA99CA914
:105910000E94683618160CF4DCC389819985D10180
:105920008093700490937104A0937204B0937304F5
:10593000FF85F0936B0440905F045090600460908A
:1059400061047090620498014DA95CA9C301B20181
:105950000E94A33669837A838B839C830E9452348E
:105960006B017C0160915B0470915C0480915D042B
:1059700090915E040E9452344B015C01A701960194
:105980000E948B330E94D93469877A878B879C87E2
:10599000E985FA85AD81BE81ED93FC93309709F4DA
:1059A000CDC32091670430916804409169045091FF
:1059B0006A04688979898A899B890E948C332B01C2
:1059C0003C0129813A814B815C81C501B4010E946F
:1059D0008B339B01AC01C301B2010E946C344B01BB
:1059E0005C0129813A814B815C81C701B6010E942B
:1059F0008B33A50194010E94A336609367047093D2
:105A000068048093690490936A0420EC31EE44E6C4
:105A10005EE4C501B4010E94A3360E9452340E9484
:105A2000D934603DB7E07B078105910508F0ACC330
:105A3000ED81FE811582AD81BE8114967C936E93BB
:105A4000139780918B0480938C048F5F863009F4C8
:105A5000D4C380938B0420916C0430916D044091E9
:105A60006E0450916F04B8018DA99CA90E946836FC
:105A700018160CF0C5C3E0918604F0918704C801A4
:105A8000ADA9BCA985A396A3A7A3B0A789819A8134
:105A9000AB81BC8180935B0490935C04A0935D0414
:105AA000B0935E0490918D0480918B04981300CE86
:105AB00002C40E94FD181C01909387048093860401
:105AC000009709F4F8C380915A041091A305882324
:105AD00019F010925A04BEC0809159048F5F85302E
